:020000040800F2
:1000000000500020A95600085D4C0008654C00080F
:100010006D4C0008754C00087D4C00080000000085
:10002000000000000000000000000000854C0008F7
:10003000914C0008000000009D4C0008A94C0008ED
:10004000F1560008F1560008F1560008F156000874
:10005000F1560008F1560008F1560008F156000864
:10006000F1560008F1560008F1560008F156000854
:10007000F1560008F1560008F1560008F156000844
:10008000F1560008F1560008F1560008F156000834
:10009000B54C0008F1560008F1560008F15600086A
:1000A000F1560008F1560008F1560008F156000814
:1000B000F1560008C94C0008F1560008F156000836
:1000C000F1560008F1560008F1560008F1560008F4
:1000D000F1560008DD4C0008F14C0008F15600080C
:1000E000F1560008F1560008F15600080000000023
:1000F0000000000000000000000000000000000000
:0C01000000000000000000005FF808F1A3
:10010C0080F0004002E000BF81F0004142001FBFC0
:10011C005FEA410392EA030F7FEA226C7FEA236CC9
:10012C006AD04FEA1262D2EB1363C1BFD2184140BE
:10013C0048404140B8BF5B42192B88BF704710F054
:10014C00004F40F4000020F07F4018BF404211F0F7
:10015C00004F41F4000121F07F4118BF494292EA5F
:10016C00030F3FD0A2F1010241FA03FC10EB0C008B
:10017C00C3F1200301FA03F100F0004302D5494218
:10018C0060EB4000B0F5000F13D3B0F1807F06D3C5
:10019C0040084FEA310102F10102FE2A51D2B1F1BD
:1001AC00004F40EBC25008BF20F0010040EA0300B2
:1001BC007047490040EB0000013A28BFB0F5000F32
:1001CC00EDD2B0FA80FCACF1080CB2EB0C0200FAE8
:1001DC000CF0AABF00EBC25052421843BCBFD04037
:1001EC001843704792F0000F81F4000106BF80F4B1
:1001FC0000000132013BB5E74FEA41037FEA226C74
:10020C0018BF7FEA236C21D092EA030F04D092F03E
:10021C00000F08BF0846704790EA010F1CBF002072
:10022C00704712F07F4F04D1400028BF40F00040CF
:10023C00704712F100723CBF00F50000704700F0EF
:10024C00004343F0FE4040F4000070477FEA226216
:10025C0016BF08467FEA23630146420206BF5FEAE7
:10026C00412390EA010F40F4800070474FF00003E7
:10027C0004E000BF10F0004348BF40425FEA000CAE
:10028C0008BF704743F0964301464FF000001CE056
:10029C0050EA010208BF70474FF000030AE000BFAC
:1002AC0050EA010208BF704711F0004302D54042EA
:1002BC0061EB41015FEA010C02BF8446014600205C
:1002CC0043F0B64308BFA3F18053A3F50003BCFA77
:1002DC008CF2083AA3EBC25310DB01FA02FC634424
:1002EC0000FA02FCC2F12002BCF1004F20FA02F22B
:1002FC0043EB020008BF20F00100704702F120021E
:10030C0001FA02FCC2F1200250EA4C0021FA02F27E
:10031C0043EB020008BF20EADC7070474FF0FF0C83
:10032C001CEAD0521EBF1CEAD15392EA0C0F93EA7E
:10033C000C0F6FD01A4480EA010C400218BF5FEA20
:10034C0041211ED04FF0006343EA501043EA511193
:10035C00A0FB01310CF00040B1F5000F3EBF49008D
:10036C0041EAD3715B0040EA010062F17F02FD2A91
:10037C001DD8B3F1004F40EBC25008BF20F0010074
:10038C00704790F0000F0CF0004C08BF49024CEA8B
:10039C00502040EA51207F3AC2BFD2F1FF0340EA1D
:1003AC00C250704740F400004FF00003013A5DDC8E
:1003BC0012F1190FDCBF00F000407047C2F10002CF
:1003CC00410021FA02F1C2F1200200FA02FC5FEABC
:1003DC00310040F1000053EA4C0308BF20EADC7006
:1003EC00704792F0000F00F0004C02BF400010F478
:1003FC00000F013AF9D040EA0C0093F0000F01F025
:10040C00004C02BF490011F4000F013BF9D041EA46
:10041C000C018FE70CEAD15392EA0C0F18BF93EA48
:10042C000C0F0AD030F0004C18BF31F0004CD8D172
:10043C0080EA010000F00040704790F0000F17BFF9
:10044C0090F0004F084691F0000F91F0004F14D03F
:10045C0092EA0C0F01D142020FD193EA0C0F03D197
:10046C004B0218BF084608D180EA010000F000409A
:10047C0040F0FE4040F40000704740F0FE4040F475
:10048C00400070474FF0FF0C1CEAD0521EBF1CEA14
:10049C00D15392EA0C0F93EA0C0F69D0A2EB030232
:1004AC0080EA010C49024FEA402037D04FF08053CC
:1004BC0043EA111143EA10130CF000408B4238BF91
:1004CC005B0042F17D024FF4000C8B4224BF5B1A9F
:1004DC0040EA0C00B3EB510F24BFA3EB510340EAED
:1004EC005C00B3EB910F24BFA3EB910340EA9C009B
:1004FC00B3EBD10F24BFA3EBD10340EADC001B010B
:10050C0018BF5FEA1C1CE0D1FD2A3FF650AF8B42AE
:10051C0040EBC25008BF20F0010070470CF0004CBB
:10052C004CEA50207F32C2BFD2F1FF0340EAC250E6
:10053C00704740F400004FF00003013A37E792F0A7
:10054C00000F00F0004C02BF400010F4000F013A05
:10055C00F9D040EA0C0093F0000F01F0004C02BF00
:10056C00490011F4000F013BF9D041EA0C0195E769
:10057C000CEAD15392EA0C0F08D142027FF47DAF02
:10058C0093EA0C0F7FF470AF084676E793EA0C0FF2
:10059C0004D14B023FF44CAF08466EE730F0004CF0
:1005AC0018BF31F0004CCAD130F000427FF45CAF80
:1005BC0031F000437FF43CAF5FE700BF4FF0FF3CEE
:1005CC0006E000BF4FF0010C02E000BF4FF0010C41
:1005DC004DF804CD4FEA40024FEA41037FEA226C0A
:1005EC0018BF7FEA236C11D001B052EA530C18BF2C
:1005FC0090EA010F58BFB2EB030088BFC81738BF91
:10060C006FEAE17018BF40F0010070477FEA226C7E
:10061C0002D15FEA402C05D17FEA236CE4D15FEA7A
:10062C00412CE1D05DF8040B704700BF84460846AE
:10063C006146FFE70FB5FFF7C9FF002848BF10F16F
:10064C00000F0FBD4DF808EDFFF7F4FF0CBF0120B4
:10065C0000205DF808FB00BF4DF808EDFFF7EAFF3E
:10066C0034BF012000205DF808FB00BF4DF808EDF9
:10067C00FFF7E0FF94BF012000205DF808FB00BFEE
:10068C004DF808EDFFF7D2FF94BF012000205DF874
:10069C0008FB00BF4DF808EDFFF7C8FF34BF012081
:1006AC0000205DF808FB00BF4FEA4002B2F1FE4F9C
:1006BC000FD34FF09E03B3EB12620DD94FEA002318
:1006CC0043F0004310F0004F23FA02F018BF4042F1
:1006DC0070474FF00000704712F1610F01D14202D8
:1006EC0005D110F0004008BF6FF0004070474FF08C
:1006FC00000070470348044B834202D0034B03B104
:10070C00184770470C0000200C000020000000006F
:10071C000548064B1B1AD90F01EBA301491002D057
:10072C00034B03B1184770470C0000200C0000204D
:10073C000000000010B5064C237843B9FFF7DAFF30
:10074C00044B13B10448AFF300800123237010BD98
:10075C000C00002000000000C465000808B5054B23
:10076C001BB105490548AFF30080BDE80840FFF711
:10077C00CFBF00BF0000000010000020C4650008BF
:10078C0080B400AF00BFBD4680BC704780B584B05C
:10079C0000AF78607B68002B01D1012309E27B68F4
:1007AC001B688F4A934204D04FF48F718D4804F02C
:1007BC0012FA7B681B7E002B08D07B681B7E012BFA
:1007CC0004D040F21F11874804F005FA7B685B7E69
:1007DC00002B08D07B685B7E012B04D04FF490710A
:1007EC00804804F0F8F97B689B7E002B08D07B686E
:1007FC009B7E012B04D040F221117A4804F0EBF9D6
:10080C007B68DB7E002B08D07B68DB7E012B04D061
:10081C004FF49171734804F0DEF97B681B7F002B59
:10082C0008D07B681B7F012B04D040F223116D484C
:10083C0004F0D1F97B685B7F002B08D07B685B7F71
:10084C00012B04D04FF49271664804F0C4F97B6814
:10085C009B68002B13D07B689B68B3F1804F0ED044
:10086C007B689B68B3F1004F09D07B689B68B3F140
:10087C00404F04D040F225115A4804F0ACF97B6883
:10088C00DB68002B13D07B68DB68B3F1807F0ED064
:10089C007B68DB68B3F1007F09D07B68DB68B3F160
:1008AC00407F04D04FF493714E4804F094F97B6868
:1008BC001B69002B4FD07B681B69B3F5803F4AD076
:1008CC007B681B69B3F5003F45D07B681B69B3F5AA
:1008DC00403F40D07B681B69B3F5802F3BD07B68D1
:1008EC001B69B3F5A02F36D07B681B69B3F5C02FFD
:1008FC0031D07B681B69B3F5E02F2CD07B681B696A
:10090C00B3F5002F27D07B681B69B3F5102F22D0CD
:10091C007B681B69B3F5202F1DD07B681B69B3F571
:10092C00302F18D07B681B69B3F5402F13D07B6830
:10093C001B69B3F5502F0ED07B681B69B3F5602F84
:10094C0009D07B681B69B3F5702F04D040F22711D6
:10095C00244804F040F97B685B69002B27D07B6846
:10096C005B69B3F5801F22D07B685B69B3F5001F10
:10097C001DD07B685B69B3F5401F18D07B685B6941
:10098C00B3F5800F13D07B685B69B3F5A00F0ED065
:10099C007B685B69B3F5C00F09D07B685B69B3F505
:1009AC00E00F04D04FF494710E4804F014F97B68F6
:1009BC005B68002B04D07B685B68B3F5806F04D94F
:1009CC0040F22911074804F006F97B6893F82030AF
:1009DC00DBB2002B08D1786803F0CEFF04E000BF37
:1009EC0000640040DC6500087B681B681A687B6843
:1009FC001B6842F001021A6000F07EFFF86012E002
:100A0C0000F07AFF0246FB68D31A0A2B0BD97B68DD
:100A1C005B6A43F400327B685A627B68052283F878
:100A2C0020200123C5E07B681B685B6803F0010391
:100A3C00002BE5D07B681B681A687B681B6822F06A
:100A4C0002021A6000F058FFF86012E000F054FF48
:100A5C000246FB68D31A0A2B0BD97B685B6A43F4FA
:100A6C0000327B685A627B68052283F820200123C0
:100A7C009FE07B681B685B6803F00203002BE5D1E9
:100A8C007B681B7E012B08D17B681B681A687B680E
:100A9C001B6842F080021A6007E07B681B681A68CA
:100AAC007B681B6822F080021A607B685B7E012BDE
:100ABC0008D17B681B681A687B681B6842F040028F
:100ACC001A6007E07B681B681A687B681B6822F059
:100ADC0040021A607B689B7E012B08D17B681B68E7
:100AEC001A687B681B6842F020021A6007E07B687A
:100AFC001B681A687B681B6822F020021A607B68EE
:100B0C00DB7E012B08D17B681B681A687B681B682D
:100B1C0022F010021A6007E07B681B681A687B6879
:100B2C001B6842F010021A607B681B7F012B08D1F6
:100B3C007B681B681A687B681B6842F008021A60A5
:100B4C0007E07B681B681A687B681B6822F0080248
:100B5C001A607B685B7F012B08D17B681B681A6865
:100B6C007B681B6842F004021A6007E07B681B6814
:100B7C001A687B681B6822F004021A607B689A680A
:100B8C007B68DB681A437B681B691A437B685B696B
:100B9C0042EA03017B685B685A1E7B681B680A4348
:100BAC00DA617B6800225A627B68012283F820207C
:100BBC00002318461037BD4680BD00BF80B586B0F7
:100BCC0000AF786039607B681B687B617B6893F849
:100BDC002030FB74FB7C012B03D0FB7C022B40F000
:100BEC000F813B681B68B3F5803F04D340F2523150
:100BFC00894803F0F0FF3B685B68B3F5803F04D392
:100C0C0040F25331844803F0E6FF3B689B68B3F530
:100C1C00803F04D34FF455717F4803F0DCFF3B68F1
:100C2C00DB68B3F5803F04D340F255317A4803F0CA
:100C3C00D2FF3B689B69002B08D03B689B69012B5A
:100C4C0004D040F25631744803F0C5FF3B68DB69B1
:100C5C00002B08D03B68DB69012B04D040F25731E4
:100C6C006D4803F0B8FF3B681B69002B08D03B684C
:100C7C001B69012B04D04FF45671674803F0ABFF8E
:100C8C003B681B6A002B08D03B681B6A012B04D005
:100C9C0040F25931604803F09EFF3B685B690D2BB5
:100CAC0004D940F267315C4803F095FF7B69D3F8B7
:100CBC00003243F001027B69C3F800223B685B6998
:100CCC0003F01F03012202FA03F3FB607B69D3F8E4
:100CDC001C22FB68DB431A407B69C3F81C223B686F
:100CEC00DB69002B23D17B69D3F80C22FB68DB4337
:100CFC001A407B69C3F80C223B68DB6819043B681B
:100D0C005B689BB23A68526919437B69483243F875
:100D1C0032103B689B6819043B681B689AB23B68AD
:100D2C005B690A4379694833DB000B445A603B68C2
:100D3C00DB69012B22D17B69D3F80C22FB681A43A7
:100D4C007B69C3F80C223B681B6819043B685B6821
:100D5C009BB23A68526919437B69483243F83210A6
:100D6C003B689B6819043B68DB689AB23B685B691B
:100D7C000A4379694833DB000B445A603B689B6932
:100D8C00002B09D17B69D3F80422FB68DB431A40A2
:100D9C007B69C3F8042207E07B69D3F80422FB6863
:100DAC001A437B69C3F804223B681B69002B09D1E9
:100DBC007B69D3F81422FB68DB431A407B69C3F8C8
:100DCC00142207E07B69D3F81422FB681A437B6971
:100DDC00C3F814223B681B6A012B07D17B69D3F83B
:100DEC001C22FB681A437B69C3F81C227B69D3F86D
:100DFC00003223F001027B69C3F80022002306E0D5
:100E0C007B685B6A43F480227B685A620123184634
:100E1C001837BD4680BD00BFDC65000880B584B0C6
:100E2C0000AF78607B6893F82030DBB2012B2ED1B9
:100E3C007B68022283F820207B681B681A687B6819
:100E4C001B6822F001021A6000F056FDF86012E0F7
:100E5C0000F052FD0246FB68D31A0A2B0BD97B68B3
:100E6C005B6A43F400327B685A627B68052283F824
:100E7C002020012312E07B681B685B6803F00103F0
:100E8C00002BE5D17B6800225A62002306E07B68C8
:100E9C005B6A43F400227B685A62012318461037C0
:100EAC00BD4680BD80B588B000AFF860B9607A608F
:100EBC003B60FB6893F82030FB77FB681B689B68F2
:100ECC00BB61BB689B68002B08D0BB689B68042B7C
:100EDC0004D040F2CE417F4803F07DFEBB68DB6856
:100EEC00002B08D0BB68DB68022B04D040F2CF414A
:100EFC00784803F070FEBB681B69082B04D94FF4CB
:100F0C009A61744803F067FEBB689B68002B0AD19A
:100F1C00BB681B68B3F5006F0FD340F2D3416D482B
:100F2C0003F059FE09E0BB685B68B3F1005F04D3C2
:100F3C0040F2D741674803F04EFEBB681B7D002B87
:100F4C0008D0BB681B7D012B04D040F2D94161480D
:100F5C0003F041FEFB7F012B03D0FB7F022B40F003
:100F6C00AD80BB6903F08063002B0AD1BB6903F031
:100F7C000063002B05D1BB6903F08053002B00F0FC
:100F8C009580BB691B0E03F003037B6101227B6917
:100F9C009A403B681A60BB689B68002B0DD1BB68FC
:100FAC001B685A05BB68DB68F96809681A437B69DA
:100FBC0018331B010B441A600FE0BB685B68DA0046
:100FCC00BB689B681A43BB68DB68F96809681A43FD
:100FDC007B6918331B010B441A60FB681968BB68EA
:100FEC001A697B6918331B010B4404331A60BB6804
:100FFC001B7D012B11D1FB681A687B6918331B010F
:10100C00134404331B68FA68116843F480727B69DB
:10101C0018331B010B4404331A607B6807331B78AD
:10102C001A067B6806331B781B041A437B6805334E
:10103C001B781B0213437A68043212781046FA6844
:10104C00116843EA00027B691B010B4403F5C6736C
:10105C001A607B6803331B781A067B6802331B7893
:10106C001B041A437B6801331B781B0213437A68F9
:10107C0012781046FA68116843EA00027B691B017A
:10108C000B4403F5C4731A60FB681A687B69183348
:10109C001B0113441B68FA68116843F001027B6959
:1010AC0018331B010B441A6000230EE0FB685B6ACB
:1010BC0043F40012FB685A62012306E0FB685B6A8A
:1010CC0043F48022FB685A62012318462037BD4640
:1010DC0080BD00BFDC65000880B485B000AF7860CF
:1010EC000023FB607B6893F82030FB72FB7A012BAA
:1010FC0002D0FB7A022B1DD17B681B689B6803F026
:10110C008063002B02D0FB680133FB607B681B689B
:10111C009B6803F00063002B02D0FB680133FB607B
:10112C007B681B689B6803F08053002B02D0FB6824
:10113C000133FB60FB6818461437BD4680BC704712
:10114C0080B586B000AFF860B9607A603B60FB6830
:10115C0093F82030FB75BB68002B07D0BB68012BC4
:10116C0004D040F2CD518C4803F035FDFB7D012BB2
:10117C0003D0FB7D022B40F00381BB68002B0ED10A
:10118C00FB681B68DB6803F00303002B16D1FB68BC
:10119C005B6A43F40012FB685A620123F7E0FB68B8
:1011AC001B681B6903F00303002B07D1FB685B6A08
:1011BC0043F40012FB685A620123E8E0FB681A68EA
:1011CC00BB681B331B0113441B6803F004027B68D0
:1011DC009A607B689B68002B0CD1FB681A68BB6813
:1011EC001B331B0113441B685B0DC3F30A027B68A2
:1011FC001A600BE0FB681A68BB681B331B011344B5
:10120C001B68DB0823F060427B685A60FB681A6835
:10121C00BB681B331B0113441B6803F002027B6881
:10122C00DA60FB681A68BB681B331B011344043378
:10123C001B6803F00803002B03D07B6808221A619B
:10124C000BE0FB681A68BB681B331B0113440433A7
:10125C001B6803F00F027B681A61FB681A68BB6895
:10126C001B331B01134404331B681B0ADAB27B6863
:10127C009A61FB681A68BB681B331B011344043367
:10128C001B681B0C9AB27B685A61FB681A68BB68B6
:10129C001B01134403F5DC731B68DAB23B681A704C
:1012AC00FB681A68BB681B01134403F5DC731B68ED
:1012BC001A0A3B680133D2B21A70FB681A68BB6811
:1012CC001B01134403F5DC731B681A0C3B680233D7
:1012DC00D2B21A70FB681A68BB681B01134403F581
:1012EC00DC731B681A0E3B680333D2B21A70FB68AE
:1012FC001A68BB681B01134403F5DE731A683B685C
:10130C000433D2B21A70FB681A68BB681B01134411
:10131C0003F5DE731B681A0A3B680533D2B21A70E8
:10132C00FB681A68BB681B01134403F5DE731B686A
:10133C001A0C3B680633D2B21A70FB681A68BB6889
:10134C001B01134403F5DE731B681A0E3B6807334D
:10135C00D2B21A70BB68002B08D1FB681B68DA6824
:10136C00FB681B6842F02002DA6007E0FB681B6830
:10137C001A69FB681B6842F020021A61002306E020
:10138C00FB685B6A43F48022FB685A6201231846AF
:10139C001837BD4680BD00BFDC65000880B584B041
:1013AC0000AF786039607B6893F82030FB733B6842
:1013BC00114A934204D940F26661104803F00BFCC9
:1013CC00FB7B012B02D0FB7B022B09D17B681B68BA
:1013DC0059697B681B683A680A435A61002306E026
:1013EC007B685B6A43F480227B685A62012318464F
:1013FC001037BD4680BD00BF7F8F0300DC65000841
:10140C0080B58AB000AF786000237B627B681B6874
:10141C005B693B627B681B685B68FB617B681B6874
:10142C009B68BB617B681B68DB687B617B681B68A6
:10143C001B693B617B681B689B69FB603B6A03F023
:10144C000103002B7CD0BB6903F00103002B23D0DC
:10145C007B681B6801229A60BB6903F00203002BB6
:10146C0003D0786800F083F916E0BB6903F004033D
:10147C00002B04D07B6A43F400637B620CE0BB69F5
:10148C0003F00803002B04D07B6A43F480537B6287
:10149C0002E0786800F086F9BB6903F48073002BD6
:1014AC0024D07B681B684FF480729A60BB6903F48C
:1014BC000073002B03D0786800F062F916E0BB696A
:1014CC0003F48063002B04D07B6A43F400537B62EB
:1014DC000CE0BB6903F40063002B04D07B6A43F47B
:1014EC0080437B6202E0786800F065F9BB6903F425
:1014FC008033002B24D07B681B684FF480329A60B9
:10150C00BB6903F40033002B03D0786800F041F979
:10151C0016E0BB6903F48023002B04D07B6A43F4F0
:10152C0000437B620CE0BB6903F40023002B04D066
:10153C007B6A43F480337B6202E0786800F044F904
:10154C003B6A03F00803002B0CD07B6903F01003FB
:10155C00002B07D07B6A43F400737B627B681B68AB
:10156C001022DA603B6A03F00403002B0BD07B697A
:10157C0003F00803002B06D07B681B680822DA6096
:10158C00786800F02AF93B6A03F00203002B09D0BB
:10159C007B681B68DB6803F00303002B02D07868C0
:1015AC0004F01AF83B6A03F04003002B0CD03B69A3
:1015BC0003F01003002B07D07B6A43F480637B623B
:1015CC007B681B6810221A613B6A03F02003002B16
:1015DC000BD03B6903F00803002B06D07B681B681B
:1015EC0008221A61786800F00AF93B6A03F01003CC
:1015FC00002B09D07B681B681B6903F00303002BCD
:10160C0002D0786800F0F2F83B6A03F40033002B48
:10161C000BD0FB6903F01003002B06D07B681B6812
:10162C0010225A60786800F0F3F83B6A03F48033B8
:10163C00002B0BD0FB6903F00803002B06D07B6852
:10164C001B6808225A60786800F0EBF83B6A03F4D8
:10165C000043002B7BD0FB6903F00403002B72D0FA
:10166C003B6A03F48073002B08D0FB6803F0010382
:10167C00002B03D07B6A43F001037B623B6A03F4CB
:10168C000073002B08D0FB6803F00203002B03D07F
:10169C007B6A43F002037B623B6A03F48063002B9A
:1016AC0008D0FB6803F00403002B03D07B6A43F0E3
:1016BC0004037B623B6A03F40063002B43D0FB689A
:1016CC0003F07003002B3ED0FB6803F07003602B1B
:1016DC002BD0602B2ED8502B22D0502B2AD8402B1D
:1016EC0019D0402B26D8302B10D0302B22D8102BD1
:1016FC0002D0202B05D01DE07B6A43F008037B62EF
:10170C0019E07B6A43F010037B6214E07B6A43F0C0
:10171C0020037B620FE07B6A43F040037B620AE0AC
:10172C007B6A43F080037B6205E07B6A43F4807341
:10173C007B6200E000BF7B681B689A697B681B6852
:10174C0022F070029A617B681B6804225A607B6AE3
:10175C00002B08D07B685A6A7B6A1A437B685A62F2
:10176C00786800F067F800BF2837BD4680BD80B4AC
:10177C0083B000AF786000BF0C37BD4680BC7047AB
:10178C0080B483B000AF786000BF0C37BD4680BC1E
:10179C00704780B483B000AF786000BF0C37BD4693
:1017AC0080BC704780B483B000AF786000BF0C374A
:1017BC00BD4680BC704780B483B000AF786000BF7A
:1017CC000C37BD4680BC704780B483B000AF7860E6
:1017DC0000BF0C37BD4680BC704780B483B000AFEF
:1017EC00786000BF0C37BD4680BC704780B483B0B6
:1017FC0000AF786000BF0C37BD4680BC704780B42A
:10180C0083B000AF786000BF0C37BD4680BC70471A
:10181C0080B483B000AF786000BF0C37BD4680BC8D
:10182C00704780B483B000AF786000BF0C37BD4602
:10183C0080BC704780B483B000AF786000BF0C37B9
:10184C00BD4680BC7047000080B500AF084B1B68DC
:10185C00074A43F010031360032001F035FA0F2000
:10186C0000F008F803F0C2F90023184680BD00BF51
:10187C000020024080B582B000AF7860124B1A682D
:10188C00124B1B7819464FF47A73B3FBF1F3B2FB8E
:10189C00F3F3184601F07CFA0346002B01D0012328
:1018AC000EE07B680F2B0AD8002279684FF0FF30CE
:1018BC0001F02AFA064A7B681360002300E001233A
:1018CC0018460837BD4680BD0000002008000020E7
:1018DC000400002080B400AF054B1B781A46054B62
:1018EC001B681344034A136000BFBD4680BC70479D
:1018FC00080000202800002080B400AF024B1B68B9
:10190C001846BD4680BC70472800002080B586B0C4
:10191C0000AF78607B68002B01D101235AE37B6810
:10192C001B68002B1CD07B681B6803F00103002B89
:10193C0016D17B681B6803F00203002B10D17B6867
:10194C001B6803F00803002B0AD17B681B6803F0AB
:10195C000403002B04D140F265118F4803F03BF9CE
:10196C007B681B6803F00103002B00F09A807B68F6
:10197C005B68002B0ED07B685B68B3F5803F09D0A9
:10198C007B685B68B3F5A02F04D040F26B118248E2
:10199C0003F021F9814B5B6803F00C03042B0CD092
:1019AC007E4B5B6803F00C03082B12D17B4B5B68FE
:1019BC0003F48033B3F5803F0BD1784B1B6803F4F1
:1019CC000033002B6CD07B685B68002B68D1012343
:1019DC0000E37B685B68B3F5803F06D16F4B1B68F7
:1019EC006E4A43F4803313602EE07B685B68002BF7
:1019FC000CD16A4B1B68694A23F480331360674B24
:101A0C001B68664A23F4802313601DE07B685B68C7
:101A1C00B3F5A02F0CD1614B1B68604A43F48023B3
:101A2C0013605E4B1B685D4A43F4803313600BE01C
:101A3C005A4B1B68594A23F480331360574B1B686D
:101A4C00564A23F4802313607B685B68002B13D009
:101A5C00FFF752FF386108E0FFF74EFF02463B6983
:101A6C00D31A642B01D90323B4E24C4B1B6803F447
:101A7C000033002BF0D014E0FFF73EFF386108E094
:101A8C00FFF73AFF02463B69D31A642B01D90323B3
:101A9C00A0E2424B1B6803F40033002BF0D100E0B2
:101AAC0000BF7B681B6803F00203002B00F08080F2
:101ABC007B681B69002B08D07B681B69012B04D049
:101ACC0040F29F11344803F086F87B685B691F2B4A
:101ADC0004D94FF4D071304803F07DF82F4B5B687C
:101AEC0003F00C03002B0BD02C4B5B6803F00C03A6
:101AFC00082B1CD1294B5B6803F48033002B16D1C7
:101B0C00264B1B6803F00203002B05D07B681B6976
:101B1C00012B01D001235DE2204B1B6823F0F8025E
:101B2C007B685B69DB001D4913430B6040E07B68FD
:101B3C001B69002B20D01A4B01221A60FFF7DCFE28
:101B4C00386108E0FFF7D8FE02463B69D31A022B36
:101B5C0001D903233EE2114B1B6803F00203002B57
:101B6C00F0D00E4B1B6823F0F8027B685B69DB003E
:101B7C000A4913430B601BE0094B00221A60FFF764
:101B8C00BBFE38610EE0FFF7B7FE02463B69D31A85
:101B9C00022B07D903231DE238660008001002400F
:101BAC00000042427D4B1B6803F00203002BEAD17C
:101BBC007B681B6803F00803002B40D07B689B6993
:101BCC00002B08D07B689B69012B04D04FF4F0717B
:101BDC00734803F000F87B689B69002B19D0714B9C
:101BEC0001221A60FFF788FE386108E0FFF784FED7
:101BFC0002463B69D31A022B01D90323EAE1674B56
:101C0C005B6A03F00203002BF0D0012000F002FC11
:101C1C0015E0644B00221A60FFF76EFE386108E095
:101C2C00FFF76AFE02463B69D31A022B01D9032344
:101C3C00D0E15A4B5B6A03F00203002BF0D17B68B6
:101C4C001B6803F00403002B00F0BF800023FB751E
:101C5C007B68DB68002B0CD07B68DB68012B08D021
:101C6C007B68DB68052B04D040F20F214C4802F056
:101C7C00B2FF4A4BDB6903F08053002B0DD1474B6D
:101C8C00DB69464A43F08053D361444BDB6903F074
:101C9C008053BB60BB680123FB75434B1B6803F48B
:101CAC008073002B18D1404B1B683F4A43F4807360
:101CBC001360FFF721FE386108E0FFF71DFE0246B6
:101CCC003B69D31A642B01D9032383E1364B1B6880
:101CDC0003F48073002BF0D07B68DB68012B06D1FA
:101CEC002E4B1B6A2D4A43F0010313622DE07B68D7
:101CFC00DB68002B0CD1294B1B6A284A23F001030B
:101D0C001362264B1B6A254A23F0040313621CE062
:101D1C007B68DB68052B0CD1204B1B6A1F4A43F0F8
:101D2C00040313621D4B1B6A1C4A43F0010313622C
:101D3C000BE01A4B1B6A194A23F001031362174B71
:101D4C001B6A164A23F0040313627B68DB68002BC2
:101D5C0015D0FFF7D1FD38610AE0FFF7CDFD024643
:101D6C003B69D31A41F28832934201D9032331E102
:101D7C000A4B1B6A03F00203002BEED01CE0FFF7AA
:101D8C00BBFD386112E0FFF7B7FD02463B69D31A81
:101D9C0041F28832934209D903231BE1001002401F
:101DAC003866000880044242007000408B4B1B6A6E
:101DBC0003F00203002BE6D1FB7D012B05D1874BF1
:101DCC00DB69864A23F08053D3617B68DB69002B87
:101DDC000CD07B68DB69012B08D07B68DB69022B9C
:101DEC0004D040F2AD217E4802F0F5FE7B68DB6941
:101DFC00002B00F0EE80794B5B6803F00C03082B92
:101E0C0000F0CE807B68DB69022B40F0B2807B68EF
:101E1C001B6A002B09D07B681B6AB3F5803F04D08A
:101E2C0040F2B6216E4802F0D6FE7B685B6A002B4E
:101E3C004AD07B685B6AB3F5802F45D07B685B6AC0
:101E4C00B3F5002F40D07B685B6AB3F5402F3BD0D5
:101E5C007B685B6AB3F5801F36D07B685B6AB3F531
:101E6C00A01F31D07B685B6AB3F5C01F2CD07B6898
:101E7C005B6AB3F5E01F27D07B685B6AB3F5001F84
:101E8C0022D07B685B6AB3F5101F1DD07B685B6A40
:101E9C00B3F5201F18D07B685B6AB3F5301F13D0E5
:101EAC007B685B6AB3F5401F0ED07B685B6AB3F549
:101EBC00501F09D07B685B6AB3F5601F04D040F2F9
:101ECC00B721474802F087FE464B00221A60FFF705
:101EDC0013FD386108E0FFF70FFD02463B69D31A8A
:101EEC00022B01D9032375E03C4B1B6803F00073F4
:101EFC00002BF0D17B681B6AB3F5803F16D17B6851
:101F0C009B68002B09D07B689B68B3F5003F04D01D
:101F1C0040F2CD21324802F05EFE304B5B6823F478
:101F2C0000327B689B682D4913434B602B4B5B68DD
:101F3C0023F474127B68196A7B685B6A0B4327492C
:101F4C0013434B60274B01221A60FFF7D5FC386115
:101F5C0008E0FFF7D1FC02463B69D31A022B01D9EA
:101F6C00032337E01D4B1B6803F00073002BF0D0EC
:101F7C002FE01C4B00221A60FFF7BEFC386108E012
:101F8C00FFF7BAFC02463B69D31A022B01D9032393
:101F9C0020E0124B1B6803F00073002BF0D118E00B
:101FAC007B68DB69012B01D1012313E00B4B5B68D0
:101FBC00FB60FB6803F480327B681B6A9A4206D193
:101FCC00FB6803F470127B685B6A9A4201D00123B0
:101FDC0000E0002318461837BD4680BD00100240B3
:101FEC00386600086000424280B584B000AF78606B
:101FFC0039607B68002B01D1012376E17B681B687B
:10200C0003F00103002B16D17B681B6803F002035D
:10201C00002B10D17B681B6803F00403002B0AD142
:10202C007B681B6803F00803002B04D140F23631A7
:10203C00744802F0D0FD3B68002B0AD03B68012BA2
:10204C0007D03B68022B04D040F237316D4802F0C8
:10205C00C2FD6D4B1B6803F007033A689A4210D916
:10206C00694B1B6823F0070267493B6813430B60FD
:10207C00654B1B6803F007033A689A4201D00123B1
:10208C0033E17B681B6803F00203002B49D07B68AB
:10209C001B6803F00403002B05D05C4B5B685B4AA8
:1020AC0043F4E06353607B681B6803F00803002B68
:1020BC0005D0564B5B68554A43F4605353607B68BC
:1020CC009B68002B24D07B689B68802B20D07B687E
:1020DC009B68902B1CD07B689B68A02B18D07B68CE
:1020EC009B68B02B14D07B689B68C02B10D07B688E
:1020FC009B68D02B0CD07B689B68E02B08D07B684E
:10210C009B68F02B04D040F25D313E4802F063FD39
:10211C003E4B5B6823F0F0027B689B683B491343A2
:10212C004B607B681B6803F00103002B51D07B686C
:10213C005B68002B0CD07B685B68012B08D07B683C
:10214C005B68022B04D04FF459712E4802F043FD0A
:10215C007B685B68012B07D12C4B1B6803F40033A5
:10216C00002B15D10123C0E07B685B68022B07D1E3
:10217C00264B1B6803F00073002B09D10123B4E03C
:10218C00224B1B6803F00203002B01D10123ACE0AE
:10219C001E4B5B6823F003027B685B681B4913438F
:1021AC004B60FFF7A9FBF8600AE0FFF7A5FB0246BE
:1021BC00FB68D31A41F28832934201D9032394E08D
:1021CC00124B5B6803F00C027B685B689B009A42C5
:1021DC00EBD10D4B1B6803F007033A689A4217D2F8
:1021EC00094B1B6823F0070207493B6813430B603C
:1021FC00054B1B6803F007033A689A4208D0012389
:10220C0073E000BF38660008002002400010024056
:10221C007B681B6803F00403002B25D07B68DB680C
:10222C00002B18D07B68DB68B3F5806F13D07B680C
:10223C00DB68B3F5A06F0ED07B68DB68B3F5C06FBD
:10224C0009D07B68DB68B3F5E06F04D040F2A231B3
:10225C00284802F0C0FC284B5B6823F4E0627B68E2
:10226C00DB68254913434B607B681B6803F008034C
:10227C00002B26D07B681B69002B18D07B681B6950
:10228C00B3F5806F13D07B681B69B3F5A06F0ED0CC
:10229C007B681B69B3F5C06F09D07B681B69B3F50C
:1022AC00E06F04D040F2A931124802F094FC124BBA
:1022BC005B6823F460527B681B69DB000E49134397
:1022CC004B6000F021F802460B4B5B681B0903F0D6
:1022DC000F030A49CB5C22FA03F3094A1360094B3A
:1022EC001B681846FFF7C6FA002318461037BD4680
:1022FC0080BD00BF38660008001002406868000806
:10230C00000000200400002080B487B000AF002340
:10231C00FB600023BB6000237B6100237B600023F8
:10232C003B611E4B5B68FB60FB6803F00C03042BEA
:10233C0002D0082B03D027E0194B3B6127E0FB6848
:10234C009B0C03F00F03174AD35C7B60FB6803F410
:10235C008033002B10D0114B5B685B0C03F0010336
:10236C00114AD35CBB607B680D4A03FB02F2BB686D
:10237C00B2FBF3F37B6104E07B680C4A02FB03F3D2
:10238C007B617B693B6102E0054B3B6100BF3B69B4
:10239C0018461C37BD4680BC704700BF0010024079
:1023AC0000127A00806800089068000800093D005F
:1023BC0080B400AF024B1B681846BD4680BC70470A
:1023CC000000002080B500AFFFF7F2FF0246054B7E
:1023DC005B681B0A03F007030349CB5C22FA03F387
:1023EC00184680BD001002407868000880B500AF28
:1023FC00FFF7DEFF0246054B5B68DB0A03F00703C1
:10240C000349CB5C22FA03F3184680BD001002404E
:10241C007868000880B485B000AF78600A4B1B6800
:10242C000A4AA2FB03235B0A7A6802FB03F3FB60F4
:10243C0000BFFB685A1EFA60002BF9D100BF00BF29
:10244C001437BD4680BC704700000020D34D62108D
:10245C0080B58AB000AF7860396000237B620023BE
:10246C003B627B68964A934213D07B68954A9342B1
:10247C000FD07B68944A93420BD07B68934A93426B
:10248C0007D07B68924A934203D0BD21914802F059
:10249C00A2FB3B681B689BB2002B04D03B681B68FB
:1024AC00B3F5803F03D3BE218A4802F094FB3B680E
:1024BC005B68002B00F01D823B685B68012B00F011
:1024CC0018823B685B68112B00F013823B685B68D9
:1024DC00022B00F00E823B685B68122B00F0098225
:1024EC003B685B687C4A934200F003823B685B6804
:1024FC007A4A934200F0FD813B685B68784A9342CC
:10250C0000F0F7813B685B68764A934200F0F181FA
:10251C003B685B68744A934200F0EB813B685B68F4
:10252C00724A934200F0E5813B685B68032B00F034
:10253C00E081BF21674802F04EFBDAE101227B6AA1
:10254C0002FA03F3FB613B681B68FA691340BB6139
:10255C00BA69FB699A4240F0C9817B68584A934238
:10256C0013D07B68574A93420FD07B68564A9342EC
:10257C000BD07B68554A934207D07B68544A9342F0
:10258C0003D0CD21534802F026FB3B685B68574AC9
:10259C00934200F0C280554A934200F2E880504AC0
:1025AC00934200F0BA804E4A934200F2E0804E4AC9
:1025BC00934200F0B2804C4A934200F2D880474AD2
:1025CC00934200F0AA80454A934200F2D080454ADB
:1025DC00934200F0A280434A934200F2C880122B2F
:1025EC002CD8122B00F2C38001A252F823F000BFAA
:1025FC002727000851260008A32600087527000885
:10260C007B2700087B2700087B2700087B27000816
:10261C007B2700087B2700087B2700087B27000806
:10262C007B2700087B2700087B2700087B270008F6
:10263C007B27000879260008FD260008264A9342CD
:10264C006BD094E03B68DB68022B0BD03B68DB68FB
:10265C00012B07D03B68DB68032B03D0D5211D4829
:10266C0002F0B9FA3B68DB683B6281E03B68DB68EF
:10267C00022B0BD03B68DB68012B07D03B68DB6877
:10268C00032B03D0DC21134802F0A5FA3B68DB686E
:10269C0004333B626CE03B68DB68022B0BD03B687D
:1026AC00DB68012B07D03B68DB68032B03D0E321ED
:1026BC00084802F090FA3B68DB6808333B6257E04D
:1026CC0000080140000C01400010014000140140C2
:1026DC000018014094660008000011100000211041
:1026EC000000311000001210000022100000321007
:1026FC003B68DB68022B0BD03B68DB68012B07D0F7
:10270C003B68DB68032B03D0EA21804802F063FAB4
:10271C003B68DB680C333B622AE03B689B68002B10
:10272C000BD03B689B68012B07D03B689B68022B46
:10273C0003D0F721754802F04EFA3B689B68002BDA
:10274C0002D104233B6213E03B689B68012B05D14B
:10275C0008233B627B68FA691A6109E008233B6233
:10276C007B68FA695A6103E000233B6200E000BF1A
:10277C00BB69FF2B01D87B6801E07B6804337B616C
:10278C00BB69FF2B02D87B6A9B0002E07B6A083B8B
:10279C009B003B617B691A680F213B6901FA03F3CB
:1027AC00DB431A40396A3B6901FA03F31A437B692C
:1027BC001A603B685B6803F08053002B00F0968036
:1027CC00534B9B69524A43F001039361504B9B69F5
:1027DC0003F00103BB60BB684E4A7B6A9B08023363
:1027EC0052F82330FB607B6A03F003039B000F223B
:1027FC0002FA03F3DB43FA681340FB607B68464A3A
:10280C00934213D07B68454A93420DD07B68444A6F
:10281C00934207D07B68434A934201D1032306E0DD
:10282C00042304E0022302E0012300E000237A6A7F
:10283C0002F0030292009340FA681343FB6035499F
:10284C007B6A9B080233FA6841F823203B685B687B
:10285C0003F48013002B06D0334B9A683249BB69C2
:10286C0013438B6006E0304B9A68BB69DB432E49FF
:10287C0013408B603B685B6803F40013002B06D09D
:10288C00294BDA682849BB691343CB6006E0264B19
:10289C00DA68BB69DB4324491340CB603B685B6857
:1028AC0003F40033002B06D01F4B5A681E49BB693A
:1028BC0013434B6006E01C4B5A68BB69DB431A4957
:1028CC0013404B603B685B6803F48033002B06D0ED
:1028DC00154B1A681449BB6913430B6006E0124B85
:1028EC001A68BB69DB43104913400B607B6A0133E8
:1028FC007B623B681A687B6A22FA03F3002B7FF435
:10290C001DAE00BF00BF2837BD4680BD94660008D1
:10291C00001002400000014000080140000C014082
:10292C0000100140001401400004014080B582B049
:10293C0000AF78600B467B8013467B707B88002B46
:10294C0004D14FF4EA710E4802F045F97B78002B64
:10295C0007D07B78012B04D040F2D511084802F047
:10296C003AF97B78002B03D07A887B681A6103E0F4
:10297C007B881A047B681A6100BF0837BD4680BD8E
:10298C009466000880B584B000AF78600B467B80FD
:10299C007B88002B04D14FF4F6710A4802F01BF926
:1029AC007B68DB68FB607A88FB6813401A04FB6861
:1029BC00D9437B880B401A437B681A6100BF1037E0
:1029CC00BD4680BD9466000880B485B000AF7860C9
:1029DC000023FB737B6893F82130DBB2022B08D009
:1029EC007B6804229A637B68002283F820200123F1
:1029FC0020E07B681B681A687B681B6822F00E025B
:102A0C001A607B681B681A687B681B6822F00102DD
:102A1C001A607B681A6C7B68DB6B012101FA02F28D
:102A2C005A607B68012283F821207B68002283F89E
:102A3C002020FB7B18461437BD4680BC7047000035
:102A4C0080B584B000AF78600023FB737B6893F88B
:102A5C002130DBB2022B05D07B6804229A63012360
:102A6C00FB7351E07B681B681A687B681B6822F05B
:102A7C000E021A607B681B681A687B681B6822F060
:102A8C0001021A607B681B68224A934229D07B683A
:102A9C001B68214A934222D07B681B681F4A9342D1
:102AAC001AD07B681B681E4A934212D07B681B6845
:102ABC001C4A93420AD07B681B681B4A934202D182
:102ACC004FF480130EE04FF080730BE04FF4803323
:102ADC0008E04FF4805305E04FF4807302E01023BC
:102AEC0000E00123114A53607B68012283F8212006
:102AFC007B68002283F820207B685B6B002B03D063
:102B0C007B685B6B78689847FB7B18461037BD4633
:102B1C0080BD00BF080002401C0002403000024093
:102B2C0044000240580002406C0002400000024089
:102B3C0080B485B000AF78607B6803F00703FB605E
:102B4C000C4BDB68BB60BA684FF6FF031340BB60ED
:102B5C00FB681A02BB68134343F0BF6343F40033B2
:102B6C00BB60044ABB68D36000BF1437BD4680BC51
:102B7C00704700BF00ED00E080B400AF044BDB6891
:102B8C001B0A03F007031846BD4680BC704700BF04
:102B9C0000ED00E080B483B000AF0346FB7197F901
:102BAC000730002B0BDBFB7903F01F02064997F96A
:102BBC0007305B09012000FA02F241F8232000BF24
:102BCC000C37BD4680BC704700E100E080B483B098
:102BDC0000AF03463960FB7197F90730002B0ADB15
:102BEC003B68DAB20C4997F907301201D2B20B44A8
:102BFC0083F800230AE03B68DAB20849FB7903F05A
:102C0C000F03043B1201D2B20B441A7600BF0C37EF
:102C1C00BD4680BC704700BF00E100E000ED00E065
:102C2C0080B489B000AFF860B9607A60FB6803F0DB
:102C3C000703FB61FB69C3F10703042B28BF0423C3
:102C4C00BB61FB690433062B02D9FB69033B00E033
:102C5C0000237B614FF0FF32BB6902FA03F3DA43C6
:102C6C00BB681A407B699A404FF0FF317B6901FACF
:102C7C0003F3D9437B680B40134318462437BD46F6
:102C8C0080BC704780B582B000AF78607B68013B38
:102C9C00B3F1807F01D301230FE00A4A7B68013B2B
:102CAC0053600F214FF0FF30FFF790FF054B0022D0
:102CBC009A60044B07221A60002318460837BD4659
:102CCC0080BD00BF10E000E080B582B000AF78603E
:102CDC007B68072B0FD07B68062B0CD07B68052BF1
:102CEC0009D07B68042B06D07B68032B03D0912181
:102CFC00044801F070FF7868FFF71AFF00BF08372F
:102D0C00BD4680BDF066000880B586B000AF0346B6
:102D1C00B9607A60FB7300237B617B680F2B03D94E
:102D2C00A9210E4801F057FFBB680F2B03D9AA212C
:102D3C000A4801F050FFFFF71FFF78617A68B96805
:102D4C007869FFF76DFF024697F90F301146184668
:102D5C00FFF73CFF00BF1837BD4680BDF06600088A
:102D6C0080B582B000AF0346FB7197F90730002B9A
:102D7C0003DABD21054801F02EFF97F907301846FC
:102D8C00FFF708FF00BF0837BD4680BDF06600089E
:102D9C0080B582B000AF78607868FFF773FF0346A8
:102DAC0018460837BD4680BD80B582B000AF78604C
:102DBC007B68002B01D10123A1E07B681B68524A80
:102DCC00934213D07B681B68B3F1804F0ED07B68A5
:102DDC001B684E4A934209D07B681B684C4A93424D
:102DEC0004D040F213114B4801F0F5FE7B689B6850
:102DFC00002B14D07B689B68102B10D07B689B68D1
:102E0C00202B0CD07B689B68402B08D07B689B6880
:102E1C00602B04D04FF48A713E4801F0DCFE7B68D5
:102E2C001B69002B0ED07B681B69B3F5807F09D022
:102E3C007B681B69B3F5007F04D040F2151135484F
:102E4C0001F0C9FE7B68DB68002B04D07B68DB6873
:102E5C00B3F5803F04D34FF48B712E4801F0BBFEC9
:102E6C007B689B69002B08D07B689B69802B04D006
:102E7C0040F21711274801F0AEFE7B6893F83D3005
:102E8C00DBB2002B06D17B68002283F83C207868EB
:102E9C0001F080FF7B68022283F83D207B681A6872
:102EAC007B6804331946104600F068FC7B680122ED
:102EBC0083F846207B68012283F83E207B68012240
:102ECC0083F83F207B68012283F840207B68012235
:102EDC0083F841207B68012283F842207B68012221
:102EEC0083F843207B68012283F844207B6801220D
:102EFC0083F845207B68012283F83D200023184687
:102F0C000837BD4680BD00BF002C014000040040C6
:102F1C00000800405067000880B584B000AF7860AE
:102F2C007B681B682E4A934213D07B681B68B3F1F5
:102F3C00804F0ED07B681B682A4A934209D07B686D
:102F4C001B68294A934204D04FF4E871274801F0DA
:102F5C0042FE7B6893F83D30DBB2012B01D001239C
:102F6C003AE07B68022283F83D207B681B68DA68B4
:102F7C007B681B6842F00102DA607B681B68184AA8
:102F8C0093420ED07B681B68B3F1804F09D07B68ED
:102F9C001B68144A934204D07B681B68124A934204
:102FAC0011D17B681B689B6803F00703FB60FB680F
:102FBC00062B10D07B681B681A687B681B6842F074
:102FCC0001021A6007E07B681B681A687B681B6843
:102FDC0042F001021A60002318461037BD4680BD2E
:102FEC00002C01400004004000080040506700081D
:102FFC0080B584B000AF78607B681B68DB68FB60D1
:10300C007B681B681B69BB60BB6803F00203002B69
:10301C0020D0FB6803F00203002B1BD07B681B68DD
:10302C006FF002021A617B6801221A777B681B68B9
:10303C009B6903F00303002B03D0786800F083FB3B
:10304C0005E0786800F076FB786800F085FB7B681B
:10305C0000221A77BB6803F00403002B20D0FB6816
:10306C0003F00403002B1BD07B681B686FF0040279
:10307C001A617B6802221A777B681B689B6903F4D0
:10308C004073002B03D0786800F05DFB05E0786896
:10309C0000F050FB786800F05FFB7B6800221A7729
:1030AC00BB6803F00803002B20D0FB6803F0080377
:1030BC00002B1BD07B681B686FF008021A617B68C1
:1030CC0004221A777B681B68DB6903F00303002B6F
:1030DC0003D0786800F037FB05E0786800F02AFB35
:1030EC00786800F039FB7B6800221A77BB6803F024
:1030FC001003002B20D0FB6803F01003002B1BD017
:10310C007B681B686FF010021A617B6808221A77C3
:10311C007B681B68DB6903F44073002B03D0786871
:10312C0000F011FB05E0786800F004FB786800F013
:10313C0013FB7B6800221A77BB6803F00103002B9A
:10314C000CD0FB6803F00103002B07D07B681B68D5
:10315C006FF001021A61786802F0E0F9BB6803F0C5
:10316C008003002B0CD0FB6803F08003002B07D0EE
:10317C007B681B686FF080021A61786800F0B5FC00
:10318C00BB6803F04003002B0CD0FB6803F040033A
:10319C00002B07D07B681B686FF040021A617868BF
:1031AC0000F0E3FABB6803F02003002B0CD0FB68A3
:1031BC0003F02003002B07D07B681B686FF0200204
:1031CC001A61786800F088FC00BF1037BD4680BDDE
:1031DC0080B584B000AF786039600023FB737B68E6
:1031EC0093F83C30012B01D1022396E27B6801223B
:1031FC0083F83C207B68022283F83D203B681B68E7
:10320C00B3F5805F29D03B681B68702B25D03B68D9
:10321C001B68B3F5005F20D03B681B68402B1CD0AB
:10322C003B681B68502B18D03B681B68602B14D074
:10323C003B681B68002B10D03B681B68102B0CD014
:10324C003B681B68202B08D03B681B68302B04D0D4
:10325C0041F2C2416B4801F0BEFC7B681B689B6865
:10326C00BB60BB6823F07703BB60BB6823F47F4370
:10327C00BB607B681B68BA689A603B681B68B3F5D7
:10328C00005F00F0C780B3F5005F00F23982B3F540
:10329C00805F2DD0B3F5805F00F23282702B45D069
:1032AC00702B00F22D82602B00F06781602B00F2F6
:1032BC002782502B00F01581502B00F22182402BDD
:1032CC0000F0B081402B00F21B82302B00F0F68115
:1032DC00302B00F21582202B00F0F081202B00F215
:1032EC000F82002B00F0EA81102B00F0E78107E23F
:1032FC007B681B68444A934200F005827B681B681C
:10330C00B3F1804F00F0FF817B681B683F4A93420A
:10331C0000F0F9817B681B683D4A934200F0F38111
:10332C0041F2CE41374801F056FCECE17B681B685A
:10333C00354A934213D07B681B68B3F1804F0ED093
:10334C007B681B68314A934209D07B681B68304A02
:10335C00934204D041F2D5412A4801F03CFC3B6831
:10336C009B68002B13D03B689B68B3F5805F0ED035
:10337C003B689B68B3F5005F09D03B689B68B3F56D
:10338C00405F04D041F2D8411E4801F024FC3B6858
:10339C005B68B3F5004F14D03B685B68002B10D012
:1033AC003B685B68002B0CD03B685B68022B08D039
:1033BC003B685B680A2B04D041F2D941114801F0FB
:1033CC000AFC3B68DB680F2B04D941F2DA410D484B
:1033DC0001F001FC7B6818683B6899683B685A6887
:1033EC003B68DB6800F0AFFA7B681B689B68BB60CE
:1033FC00BB6843F07703BB607B681B68BA689A6054
:10340C0082E100BF50670008002C0140000400401E
:10341C00000800407B681B687E4A934213D07B688F
:10342C001B68B3F1804F0ED07B681B687A4A9342BD
:10343C0009D07B681B68794A934204D041F2ED4174
:10344C00774801F0C8FB3B689B68002B13D03B68A6
:10345C009B68B3F5805F0ED03B689B68B3F5005F4B
:10346C0009D03B689B68B3F5405F04D041F2F04152
:10347C006B4801F0B0FB3B685B68B3F5004F14D0B0
:10348C003B685B68002B10D03B685B68002B0CD052
:10349C003B685B68022B08D03B685B680A2B04D046
:1034AC0041F2F1415E4801F096FB3B68DB680F2B63
:1034BC0004D941F2F2415A4801F08DFB7B6818683F
:1034CC003B6899683B685A683B68DB6800F03BFADC
:1034DC007B681B689A687B681B6842F480429A6020
:1034EC0012E17B681B684B4A934213D07B681B68C4
:1034FC00B3F1804F0ED07B681B68474A934209D0CA
:10350C007B681B68454A934204D041F20151444800
:10351C0001F061FB3B685B68B3F5004F14D03B686E
:10352C005B68002B10D03B685B68002B0CD03B68B1
:10353C005B68022B08D03B685B680A2B04D041F215
:10354C000451374801F047FB3B68DB680F2B04D96B
:10355C0041F20551324801F03EFB7B6818683B682C
:10356C0059683B68DB681A4600F076F97B681B6883
:10357C005021184600F0CDF9C6E07B681B68254A3F
:10358C00934213D07B681B68B3F1804F0ED07B68DD
:10359C001B68214A934209D07B681B681F4A9342DF
:1035AC0004D041F211511E4801F015FB3B685B68D9
:1035BC00B3F5004F14D03B685B68002B10D03B6810
:1035CC005B68002B0CD03B685B68022B08D03B6817
:1035DC005B680A2B04D041F21451114801F0FBFA3C
:1035EC003B68DB680F2B04D941F215510C4801F0F4
:1035FC00F2FA7B6818683B6859683B68DB681A46C6
:10360C0000F058F97B681B686021184600F081F9BE
:10361C007AE000BF002C014000040040000800408C
:10362C00506700087B681B683E4A934213D07B6846
:10363C001B68B3F1804F0ED07B681B683A4A9342EB
:10364C0009D07B681B68394A934204D041F221515E
:10365C00374801F0C0FA3B685B68B3F5004F14D0F3
:10366C003B685B68002B10D03B685B68002B0CD070
:10367C003B685B68022B08D03B685B680A2B04D064
:10368C0041F224512A4801F0A6FA3B68DB680F2B63
:10369C0004D941F22551264801F09DFA7B6818683F
:1036AC003B6859683B68DB681A4600F0D5F87B68C4
:1036BC001B684021184600F02CF925E07B681B683C
:1036CC00184A934213D07B681B68B3F1804F0ED01D
:1036DC007B681B68144A934209D07B681B68134AA9
:1036EC00934204D041F23451114801F074FA7B68D2
:1036FC001A683B681B681946104600F00AF903E08B
:10370C000123FB7300E000BF7B68012283F83D209E
:10371C007B68002283F83C20FB7B18461037BD46A3
:10372C0080BD00BF002C0140000400400008004098
:10373C005067000880B483B000AF786000BF0C37CE
:10374C00BD4680BC704780B483B000AF786000BFCA
:10375C000C37BD4680BC704780B483B000AF786036
:10376C0000BF0C37BD4680BC704780B483B000AF3F
:10377C00786000BF0C37BD4680BC704780B485B004
:10378C0000AF786039607B681B68FB607B682F4AF0
:10379C0093420BD07B68B3F1804F07D07B682C4AE7
:1037AC00934203D07B682B4A934208D1FB6823F0E9
:1037BC007003FB603B685B68FA681343FB607B68D3
:1037CC00224A93420BD07B68B3F1804F07D07B68C1
:1037DC001F4A934203D07B681E4A934208D1FB6870
:1037EC0023F44073FB603B68DB68FA681343FB60AF
:1037FC00FB6823F080023B685B691343FB607B68CA
:10380C00FA681A603B689A687B68DA623B681A68E7
:10381C007B689A627B680D4A934203D13B681A69B4
:10382C007B681A637B6801225A617B681B6903F011
:10383C000103002B05D07B681B6923F001027B6818
:10384C001A6100BF1437BD4680BC7047002C014084
:10385C00000400400008004080B487B000AFF8605E
:10386C00B9607A60FB681B6A7B61FB681B6A23F09A
:10387C000102FB681A62FB689B693B613B6923F0A0
:10388C00F0033B617B681B013A6913433B617B6925
:10389C0023F00A037B617A69BB6813437B61FB6885
:1038AC003A699A61FB687A691A6200BF1C37BD4697
:1038BC0080BC704780B487B000AFF860B9607A60A4
:1038CC00FB681B6A7B61FB681B6A23F01002FB68B8
:1038DC001A62FB689B693B613B6923F470433B6153
:1038EC007B681B033A6913433B617B6923F0A0039C
:1038FC007B61BB681B017A6913437B61FB683A6986
:10390C009A61FB687A691A6200BF1C37BD4680BC9D
:10391C00704780B485B000AF786039607B689B6875
:10392C00FB60FB6823F07003FB603A68FB68134391
:10393C0043F00703FB607B68FA689A6000BF14379A
:10394C00BD4680BC704780B487B000AFF860B960EA
:10395C007A603B60FB689B687B617B6923F47F43E7
:10396C007B613B681A027B681A43BB6813437A6914
:10397C0013437B61FB687A699A6000BF1C37BD46B4
:10398C0080BC704780B584B000AF786039607B68CC
:10399C001B684D4A934213D07B681B68B3F1804F70
:1039AC000ED07B681B68494A934209D07B681B6820
:1039BC00474A934204D040F2A971464801F00BF9F2
:1039CC003B681B68002B20D03B681B68102B1CD05D
:1039DC003B681B68202B18D03B681B68302B14D01D
:1039EC003B681B68402B10D03B681B68502B0CD0DD
:1039FC003B681B68602B08D03B681B68702B04D09D
:103A0C0040F2AA71334801F0E6F83B685B68802B02
:103A1C0008D03B685B68002B04D040F2AB712D489A
:103A2C0001F0D9F87B6893F83C30012B01D10223CB
:103A3C0046E07B68012283F83C207B68022283F8F5
:103A4C003D207B681B685B68FB607B681B689B6820
:103A5C00BB60FB6823F07003FB603B681B68FA6873
:103A6C001343FB607B681B68FA685A607B681B68B1
:103A7C00154A93420ED07B681B68B3F1804F09D076
:103A8C007B681B68114A934204D07B681B68104A00
:103A9C0093420CD1BB6823F08003BB603B685B682E
:103AAC00BA681343BB607B681B68BA689A607B6812
:103ABC00012283F83D207B68002283F83C20002300
:103ACC0018461037BD4680BD002C01400004004054
:103ADC0000080040AC67000880B483B000AF786089
:103AEC0000BF0C37BD4680BC704780B483B000AFBC
:103AFC00786000BF0C37BD4680BC704780B582B083
:103B0C0000AF78607B68002B01D1012395E07B68C6
:103B1C009B69002B2CD07B681B684A4A93420ED0C1
:103B2C007B681B68484A934209D07B681B68474AEC
:103B3C00934204D04FF4B771454801F04CF87B68C0
:103B4C009B69002B28D07B689B69B3F5807F23D0C1
:103B5C007B689B69B3F5007F1ED07B689B69B3F5CE
:103B6C00407F19D040F26F11394801F034F813E05E
:103B7C007B681B68334A93420ED07B681B68324AC1
:103B8C00934209D07B681B68304A934204D040F2C0
:103B9C0073112F4801F01FF87B689B68002B09D02C
:103BAC007B689B68B3F5805F04D040F275112848A0
:103BBC0001F011F87B6893F84130DBB2002B06D191
:103BCC007B68002283F84020786801F05DF97B68FF
:103BDC00242283F841207B681B68DA687B681B68A9
:103BEC0022F40052DA60786800F0C0FD7B681B6834
:103BFC001A697B681B6822F490421A617B681B6807
:103C0C005A697B681B6822F02A025A617B681B6820
:103C1C00DA687B681B6842F40052DA607B68002229
:103C2C005A647B68202283F841207B68202283F829
:103C3C0042207B6800225A63002318460837BD4691
:103C4C0080BD00BF003801400044004000480040E7
:103C5C000C68000880B58AB002AFF860B9603B60B0
:103C6C001346FB8000237B61FB6893F84130DBB289
:103C7C00202B75D1BB68002B02D0FB88002B01D107
:103C8C0001236EE0FB6800225A64FB68212283F852
:103C9C004120FDF731FE7861FB68FA889A84FB6855
:103CAC00FA88DA84FB689B68B3F5805F08D1FB68FF
:103CBC001B69002B04D10023FB61BB68BB6103E0D3
:103CCC00BB68FB610023BB612EE03B6800937B6902
:103CDC0000228021F86800F01CFB0346002B05D065
:103CEC00FB68202283F8412003233AE0FB69002B78
:103CFC000BD1BB691B881A46FB681B68C2F3080210
:103D0C005A60BB690233BB6107E0FB691A78FB6838
:103D1C001B685A60FB690133FB61FB68DB8C9BB24F
:103D2C00013B9AB2FB68DA84FB68DB8C9BB2002BFC
:103D3C00CBD13B6800937B6900224021F86800F0EE
:103D4C00E8FA0346002B05D0FB68202283F84120BB
:103D5C00032306E0FB68202283F84120002300E0C7
:103D6C00022318462037BD4680BD80B584B000AF15
:103D7C00F860B9601346FB80FB6893F84230DBB205
:103D8C00202B12D1BB68002B02D0FB88002B01D159
:103D9C0001230BE0FB6800221A63FB881A46B96802
:103DAC00F86800F00FFB034600E0022318461037BA
:103DBC00BD4680BD80B5BAB000AF78607B681B682B
:103DCC001B68C7F8E4307B681B68DB68C7F8E03019
:103DDC007B681B685B69C7F8DC300023C7F8D830F8
:103DEC000023C7F8D430D7F8E43003F00F03C7F83A
:103DFC00D830D7F8D830002B0FD1D7F8E43003F0F7
:103E0C002003002B09D0D7F8E03003F02003002B5F
:103E1C0003D0786800F0ECFB5BE2D7F8D830002BCD
:103E2C0000F0DE80D7F8DC3003F00103002B06D164
:103E3C00D7F8E03003F49073002B00F0D180D7F862
:103E4C00E43003F00103002B0BD0D7F8E03003F47F
:103E5C008073002B05D07B685B6C43F001027B68A0
:103E6C005A64D7F8E43003F00403002B0BD0D7F8D6
:103E7C00DC3003F00103002B05D07B685B6C43F056
:103E8C0002027B685A64D7F8E43003F00203002B7B
:103E9C000BD0D7F8DC3003F00103002B05D07B6886
:103EAC005B6C43F004027B685A64D7F8E43003F08F
:103EBC000803002B11D0D7F8E03003F02003002BBF
:103ECC0005D1D7F8DC3003F00103002B05D07B685B
:103EDC005B6C43F008027B685A647B685B6C002B5C
:103EEC0000F0F281D7F8E43003F02003002B08D067
:103EFC00D7F8E03003F02003002B02D0786800F0F4
:103F0C0077FB7B681B685B6903F04003002B14BFD5
:103F1C0001230023DBB2C7F8D4307B685B6C03F061
:103F2C000803002B03D1D7F8D430002B4FD078687E
:103F3C0000F081FA7B681B685B6903F04003002B7F
:103F4C0041D07B681B681433C7F89C30D7F89C3081
:103F5C0053E8003FC7F89830D7F8983023F0400367
:103F6C00C7F8D0307B681B681433D7F8D020C7F85B
:103F7C00A820C7F8A430D7F8A410D7F8A82041E897
:103F8C000023C7F8A030D7F8A030002BD9D17B681C
:103F9C00DB6B002B13D07B68DB6B7E4A5A637B6830
:103FAC00DB6B1846FEF74CFD0346002B16D07B68E6
:103FBC00DB6B5B6B7A68D26B104698470EE07868C7
:103FCC0000F093F90AE0786800F08FF906E0786861
:103FDC0000F08BF97B6800225A6475E100BF73E135
:103FEC007B681B6B012B40F04F81D7F8E43003F05A
:103FFC001003002B00F04881D7F8E03003F01003D9
:10400C00002B00F041810023BB607B681B681B68A0
:10401C00BB607B681B685B68BB60BB687B681B68AC
:10402C005B6903F04003002B00F0B6807B68DB6B10
:10403C001B685B68A7F8BE30B7F8BE30002B00F0E9
:10404C0045817B689B8DB7F8BE209A4280F03E81FB
:10405C007B68B7F8BE20DA857B68DB6B9B69202B0D
:10406C0000F088807B681B680C33C7F88830D7F861
:10407C00883053E8003FC7F88430D7F8843023F4F5
:10408C008073C7F8B8307B681B680C33D7F8B8203E
:10409C00C7F89420C7F89030D7F89010D7F8942030
:1040AC0041E80023C7F88C30D7F88C30002BD9D1DD
:1040BC007B681B6814337B677B6F53E8003F3B675F
:1040CC003B6F23F00103C7F8B4307B681B681433D3
:1040DC00D7F8B420C7F88020FB67F96FD7F8802099
:1040EC0041E80023BB67BB6F002BE1D17B681B68E9
:1040FC0014333B663B6E53E8003FFB65FB6D23F0CE
:10410C004003C7F8B0307B681B681433D7F8B02075
:10411C00FA66BB66B96EFA6E41E800237B667B6E6D
:10412C00002BE3D17B68202283F842207B6800229D
:10413C001A637B681B680C33FB64FB6C53E8003F11
:10414C00BB64BB6C23F01003C7F8AC307B681B68F6
:10415C000C33D7F8AC20BA657B65796DBA6D41E844
:10416C0000233B653B6D002BE3D17B68DB6B184672
:10417C00FEF72AFC7B6802225A637B689A8D7B6867
:10418C00DB8D9BB2D31A9BB21946786800F0B6F857
:10419C009CE000BF074500087B689A8D7B68DB8D2F
:1041AC009BB2D31AA7F8CE307B68DB8D9BB2002B69
:1041BC0000F08E80B7F8CE30002B00F089807B6841
:1041CC001B680C33BB63BB6B53E8003F7B637B6B9F
:1041DC0023F49073C7F8C8307B681B680C33D7F88E
:1041EC00C8207A643B64396C7A6C41E80023FB6329
:1041FC00FB6B002BE3D17B681B6814337B627B6AFF
:10420C0053E8003F3B623B6A23F00103C7F8C4301C
:10421C007B681B681433D7F8C4203A63FB62F96AD5
:10422C003A6B41E80023BB62BB6A002BE3D17B688D
:10423C00202283F842207B6800221A637B681B686B
:10424C000C333B613B6953E8003FFB60FB6823F098
:10425C001003C7F8C0307B681B680C33D7F8C0203C
:10426C00FA61BB61B969FA6941E800237B617B693A
:10427C00002BE3D17B6802225A63B7F8CE30194683
:10428C00786800F03BF823E0D7F8E43003F08003C3
:10429C00002B09D0D7F8E03003F08003002B03D0BB
:1042AC00786800F03EF914E0D7F8E43003F04003EE
:1042BC00002B0ED0D7F8E03003F04003002B08D0D1
:1042CC00786800F07DF904E000BF02E000BF00E078
:1042DC0000BFE837BD4680BD80B483B000AF7860C6
:1042EC0000BF0C37BD4680BC704780B483B000AFB4
:1042FC00786000BF0C37BD4680BC704780B483B07B
:10430C0000AF78600B467B8000BF0C37BD4680BC8D
:10431C00704780B586B000AFF860B9603B6013465B
:10432C00FB713BE03B6AB3F1FF3F37D0FDF7E4FA9A
:10433C0002463B68D31A3A6A9A4202D33B6A002B74
:10434C0001D103233AE0FB681B68DB6803F004032C
:10435C00002B23D0BB68802B20D0BB68402B1DD0FA
:10436C00FB681B681B6803F00803082B16D100239D
:10437C007B61FB681B681B687B61FB681B685B6867
:10438C007B617B69F86800F056F8FB6808225A6478
:10439C00FB68002283F8402001230FE0FB681B68B8
:1043AC001A68BB681340BA689A420CBF01230023F9
:1043BC00DBB21A46FB799A42B4D000231846183760
:1043CC00BD4680BD80B485B000AFF860B9601346BF
:1043DC00FB80FB68BA689A62FB68FA889A85FB686E
:1043EC00FA88DA85FB6800225A64FB68222283F87B
:1043FC004220FB681B69002B07D0FB681B68DA683E
:10440C00FB681B6842F48072DA60FB681B685A69AF
:10441C00FB681B6842F001025A61FB681B68DA6892
:10442C00FB681B6842F02002DA6000231846143740
:10443C00BD4680BC704780B495B000AF78607B6897
:10444C001B680C337B637B6B53E8003F3B633B6B1C
:10445C0023F49073FB647B681B680C33FA6C3A642E
:10446C00FB63F96B3A6C41E80023BB63BB6B002B1D
:10447C00E5D17B681B6814333B623B6A53E8003F11
:10448C00FB61FB6923F00103BB647B681B6814337D
:10449C00BA6CFA62BB62B96AFA6A41E800237B62C1
:1044AC007B6A002BE5D17B681B6B012B19D17B68D8
:1044BC001B680C33FB60FB6853E8003FBB60BB68B8
:1044CC0023F010037B647B681B680C337A6CBA6135
:1044DC007B617969BA6941E800233B613B69002B38
:1044EC00E5D17B68202283F842207B6800221A6386
:1044FC0000BF5437BD4680BC704780B584B000AF58
:10450C0078607B685B6AFB60FB680022DA85FB687D
:10451C000022DA84F868FFF7E8FE00BF1037BD46CA
:10452C0080BD80B485B000AF78607B6893F8413073
:10453C00DBB2212B3ED17B689B68B3F5805F14D135
:10454C007B681B69002B10D17B681B6AFB60FB68C6
:10455C001B881A467B681B68C2F308025A607B688A
:10456C001B6A9A1C7B681A6208E07B681B6A591CE0
:10457C007A6811621A787B681B685A607B68DB8CDE
:10458C009BB2013B9BB27A681946D184002B0FD1A8
:10459C007B681B68DA687B681B6822F08002DA6033
:1045AC007B681B68DA687B681B6842F04002DA6043
:1045BC00002300E0022318461437BD4680BC704728
:1045CC0080B582B000AF78607B681B68DA687B6866
:1045DC001B6822F04002DA607B68202283F84120BD
:1045EC007868FFF779FE002318460837BD4680BD72
:1045FC0080B58CB000AF78607B6893F84230DBB24A
:10460C00222B40F0AE807B689B68B3F5805F17D19E
:10461C007B681B69002B13D10023FB627B689B6AB0
:10462C00BB627B681B685B689BB2C3F308039AB2DE
:10463C00BB6A1A807B689B6A9A1C7B689A6226E02C
:10464C007B689B6AFB620023BB627B689B68B3F54B
:10465C00805F07D07B689B68002B0AD17B681B6945
:10466C00002B06D17B681B685B68DAB2FB6A1A7098
:10467C0008E07B681B685B68DBB203F07F03DAB28F
:10468C00FB6A1A707B689B6A5A1C7B689A627B680F
:10469C00DB8D9BB2013B9BB27A681946D185002B0E
:1046AC005DD17B681B68DA687B681B6822F020028E
:1046BC00DA607B681B68DA687B681B6822F480729E
:1046CC00DA607B681B685A697B681B6822F0010200
:1046DC005A617B68202283F842207B6800225A634F
:1046EC007B681B6B012B35D17B6800221A637B68BE
:1046FC001B680C337B617B6953E8003F3B613B6972
:10470C0023F010037B627B681B680C337A6A3A6275
:10471C00FB61F9693A6A41E80023BB61BB69002B74
:10472C00E5D17B681B681B6803F01003102B0AD1C2
:10473C000023FB607B681B681B68FB607B681B6845
:10474C005B68FB60FB687B689B8D19467868FFF79C
:10475C00D5FD02E0786800F0F1FE002302E00023B2
:10476C0000E0022318463037BD4680BD80B584B0CA
:10477C0000AF78607B685B685F4A934204D940F66F
:10478C0075615E4800F027FA7B68DB68002B09D066
:10479C007B68DB68B3F5005F04D040F67661574860
:1047AC0000F019FA7B681B69002B0ED07B681B6923
:1047BC00B3F5806F09D07B681B69B3F5C06F04D06B
:1047CC0040F677614D4800F006FA7B685A694FF65F
:1047DC00F3731340002B03D17B685B69002B04D16E
:1047EC0040F67861454800F0F6F97B681B681B6958
:1047FC0023F440517B68DA687B681B680A431A61B2
:10480C007B689A687B681B691A437B685B691343F6
:10481C00BB607B681B68DB6823F4B05323F00C038C
:10482C007A681268B9680B43D3607B681B685B6954
:10483C0023F440717B689A697B681B680A435A6150
:10484C007B681B682E4A934203D1FDF7CFFDF860BD
:10485C0002E0FDF7B7FDF860FA6813469B001344BD
:10486C009A001A447B685B689B00B2FBF3F3254A01
:10487C00A2FB03235B091901FA6813469B0013443E
:10488C009A001A447B685B689B00B2FBF3F21D4BE9
:10489C00A3FB02035B09642000FB03F3D31A1B0187
:1048AC003233184AA2FB03235B0903F0F0031944CB
:1048BC00FA6813469B0013449A001A447B685B68A1
:1048CC009B00B2FBF3F20F4BA3FB02035B096420CA
:1048DC0000FB03F3D31A1B0132330A4AA2FB032356
:1048EC005B0903F00F027B681B680A449A6000BFE7
:1048FC001037BD4680BD00BF20AA44000C680008DC
:10490C00003801401F85EB5180B500AF184B194A98
:10491C001A60174B04225A60154B4FF080429A6074
:10492C00134B0022DA60124B4FF400321A61104B19
:10493C004FF480025A610E4B00221A760C4B002267
:10494C005A760B4B00229A76094B0022DA76084BEA
:10495C0000221A77064B00225A770548FBF716FF00
:10496C000346002B01D000F030F900BF80BD00BF22
:10497C002C0000200064004080B588B000AF786047
:10498C0007F1100300221A605A609A60DA607B68A3
:10499C001B68204A934239D11F4BDB691E4A43F0F6
:1049AC000073D3611C4BDB6903F00073FB60FB6885
:1049BC00194B9B69184A43F004039361164B9B698E
:1049CC0003F00403BB60BB684FF400633B6100233E
:1049DC007B610023BB6107F1100319460F48FDF7FB
:1049EC0037FD4FF480533B6102237B610323FB6152
:1049FC0007F1100319460948FDF72AFD0022002192
:104A0C001420FEF781F91420FEF7AAF900BF203715
:104A1C00BD4680BD0064004000100240000801400B
:104A2C0080B588B000AF07F1100300221A605A60FD
:104A3C009A60DA60344B9B69334A43F010039361FC
:104A4C00314B9B6903F01003FB60FB682E4B9B6999
:104A5C002D4A43F0200393612B4B9B6903F02003F9
:104A6C00BB60BB68284B9B69274A43F004039361E6
:104A7C00254B9B6903F004037B607B68224B9B698D
:104A8C00214A43F0080393611F4B9B6903F0080311
:104A9C003B603B6800224FF400511C48FDF746FF79
:104AAC004FF400533B6101237B610023BB61022364
:104ABC00FB6107F1100319461448FDF7C9FC4FF4CC
:104ACC0040433B6103237B6107F1100319460F48F8
:104ADC00FDF7BEFC48F2F3133B6103237B6107F146
:104AEC00100319460A48FDF7B3FC4FF6FF733B6100
:104AFC0003237B6107F1100319460648FDF7A8FC58
:104B0C0000BF2037BD4680BD0010024000100140A0
:104B1C0000080140000C014080B500AFFCF794FE8A
:104B2C0000F00EF8FFF77CFFFFF7EEFE00F0E4F864
:104B3C0000F080F900F054F900F03AFA00BFFDE7FC
:104B4C0080B590B000AF07F1180328220021184659
:104B5C0001F006FD3B1D00221A605A609A60DA6073
:104B6C001A610123BB614FF48033FB6100233B626C
:104B7C000123BB6202237B634FF48033BB634FF48E
:104B8C00E013FB6307F118031846FCF7BFFE03465E
:104B9C00002B01D000F019F80F237B600223BB60BF
:104BAC000023FB604FF480633B6100237B613B1D62
:104BBC0002211846FDF718FA0346002B01D000F02D
:104BCC0004F800BF4037BD4680BD80B400AF72B65C
:104BDC0000BF00BFFDE780B483B000AF78603960E0
:104BEC0000BF0C37BD4680BC7047000080B485B058
:104BFC0000AF154B9B69144A43F001039361124BB0
:104C0C009B6903F00103BB60BB680F4BDB690E4A69
:104C1C0043F08053D3610C4BDB6903F080537B6012
:104C2C007B680A4B5B68FB60FB6823F0E063FB600E
:104C3C00FB6843F00073FB60044AFB68536000BFE1
:104C4C001437BD4680BC7047001002400000014084
:104C5C0080B400AF00BFFDE780B400AF00BFFDE73C
:104C6C0080B400AF00BFFDE780B400AF00BFFDE72C
:104C7C0080B400AF00BFFDE780B400AF00BFBD46FD
:104C8C0080BC704780B400AF00BFBD4680BC70478D
:104C9C0080B400AF00BFBD4680BC704780B500AF8C
:104CAC00FCF718FE00BF80BD80B500AF0248FCF7D2
:104CBC00A7FB00BF80BD00BF2C00002080B500AF5B
:104CCC000248FEF795F900BF80BD00BF54000020DC
:104CDC0080B500AF0248FFF76DF800BF80BD00BF84
:104CEC009C00002080B500AF0248FFF763F800BFBE
:104CFC0080BD00BFE400002080B586B000AF07F196
:104D0C00080300221A605A609A60DA603B4600225F
:104D1C001A605A601D4B1E4A1A601C4B47225A607F
:104D2C001A4B00229A60194B40F2E732DA60174BAB
:104D3C0000221A61154B00229A611448FEF734F8D0
:104D4C000346002B01D0FFF740FF4FF48053BB60AC
:104D5C0007F1080319460D48FEF73AFA0346002BF3
:104D6C0001D0FFF732FF00233B6000237B603B4602
:104D7C0019460648FEF706FE0346002B01D0FFF746
:104D8C0024FF00BF1837BD4680BD00BF5400002073
:104D9C000004004080B584B000AF78607B681B686D
:104DAC000D4A934213D10D4BDB690C4A43F00203BD
:104DBC00D3610A4BDB6903F00203FB60FB68002242
:104DCC0000211D20FDF7A0FF1D20FDF7C9FF00BF2E
:104DDC001037BD4680BD00BF0004004000100240EB
:104DEC0080B500AF114B124A1A60104B4FF4E132F0
:104DFC005A600E4B00229A600C4B0022DA600B4B6F
:104E0C0000221A61094B0C225A61084B00229A614C
:104E1C00064B0022DA610548FEF770FE0346002BB4
:104E2C0001D0FFF7D2FE00BF80BD00BF9C00002068
:104E3C000038014080B500AF114B124A1A60104B7C
:104E4C004FF4E1325A600E4B00229A600C4B002258
:104E5C00DA600B4B00221A61094B0C225A61084B89
:104E6C0000229A61064B0022DA610548FEF746FEE5
:104E7C000346002B01D0FFF7A8FE00BF80BD00BF8A
:104E8C00E40000200044004080B58AB000AF786098
:104E9C0007F1180300221A605A609A60DA607B6886
:104EAC001B683F4A93423AD13E4B9B693D4A43F4BF
:104EBC00804393613B4B9B6903F480437B617B692B
:104ECC00384B9B69374A43F004039361354B9B691C
:104EDC0003F004033B613B694FF40073BB61022395
:104EEC00FB6103237B6207F1180319462E48FDF77B
:104EFC00AFFA4FF48063BB610023FB6100233B627C
:104F0C0007F1180319462848FDF7A2FA00220021E0
:104F1C002520FDF7F9FE2520FDF722FF3CE07B68FC
:104F2C001B68224A934237D11E4BDB691D4A43F45E
:104F3C000033D3611B4BDB6903F40033FB60FB686C
:104F4C00184B9B69174A43F004039361154B9B69FB
:104F5C0003F00403BB60BB680423BB610223FB6149
:104F6C0003237B6207F1180319460F48FDF770FA0B
:104F7C000823BB610023FB6100233B6207F118038C
:104F8C0019460948FDF764FA002200212620FDF796
:104F9C00BBFE2620FDF7E4FE00BF2837BD4680BDD2
:104FAC00003801400010024000080140004400405D
:104FBC0080B500AF0B4B00221A600B4800F0D8FAFA
:104FCC000948FBF72BFF02210748FCF7E7F9012200
:104FDC0006490748FEF7C9FE0648FDF79DFF00BFCE
:104FEC0080BD00BF2C0100202C00002030010020CF
:104FFC009C0000205400002080B586B000AF5D4BB3
:10500C001B6801335B4A13605A4B1A685A4BA3FB5B
:10501C0002139B094FF47A7101FB03F3D31A002B93
:10502C0004D14FF400515548FDF7ACFC514B1A68B4
:10503C00534BA3FB02135B09642101FB03F3D31A4B
:10504C00052B21D14B4B1B684E4A1360494B1B68F7
:10505C001846FBF70BF903464B491846FBF712FAB7
:10506C000346184600F040FB0346464A536007F1DE
:10507C000C03184600F090F807F10C014FF6FF7383
:10508C0009224248FEF7E6FD3A4B1A683C4BA3FB5B
:10509C0002135B09642101FB03F3D31A002B64D1C7
:1050AC00344B1B683A4A1360324B1B681846FBF7AB
:1050BC00DDF8034634491846FBF7E4F90346184675
:1050CC0000F012FB0346324A53602A4B1B682C4AF1
:1050DC00A2FB03235B09DAB22D4B1A72254B1B681A
:1050EC00274AA2FB03235B0903F00103002B0CBF2F
:1050FC0001230023DAB2264B5A721E4B1B68204A3E
:10510C00A2FB03239B0903F00103002B0CBF01231B
:10511C000023DAB21E4B9A72164B1B68184AA2FB7C
:10512C000323DB0903F00103002B0CBF0123002335
:10513C00DAB2174BDA720F4B1B68114AA2FB03232E
:10514C001B0A03F00103002B0CBF01230023DAB26E
:10515C000F4B1A733B1D184600F00AF9391D082332
:10516C004FF480720B4800F05DFA00BF1837BD4653
:10517C0080BD00BF2C010020D34D621000100140F7
:10518C001F85EB513401002000007A449C00002064
:10519C00440100202C00002080B584B000AF786062
:1051AC00214B5B6821491846FBF7B8F803461846B3
:1051BC00FBF77AFA0346FB817B68AA221A707B689C
:1051CC000133BB221A707B680233CC221A70164B47
:1051DC001B681A0E7B680333D2B21A70124B1B6811
:1051EC001A0C7B680433D2B21A700F4B1B681A0A64
:1051FC007B680533D2B21A700B4B1A687B68063386
:10520C00D2B21A70B7F90E301B121AB27B68073380
:10521C00D2B21A707B680833FA89D2B21A7000BF06
:10522C001037BD4680BD00BF340100200060EA4647
:10523C0080B584B000AF78607B6803331B781A06A6
:10524C007B6804331B781B041A437B6805331B787B
:10525C001B0213437A680632127813431A46104B1A
:10526C001A607B6807331B781BB21B021AB27B686F
:10527C0008331B781BB21343FB81B7F90E30184669
:10528C00FAF7F8FF034607491846FBF7FBF8034605
:10529C001A46034B5A6000BF1037BD4680BD00BF95
:1052AC003C0100200060EA4680B582B000AF0346A6
:1052BC00FB712C4B1B78032B48D801A252F823F01E
:1052CC00DD520008F15200080D5300082F5300085E
:1052DC00FB79AA2B3ED1244AFB791370214B012276
:1052EC001A7037E0FB79BB2B06D11F4AFB79537040
:1052FC001C4B02221A7030E01A4B00221A702CE060
:10530C00FB79CC2B09D1184AFB799370174B0322EC
:10531C001A70144B03221A701FE0124B00221A70E1
:10532C001BE0F979114B1B785A1CD0B20F4A107044
:10533C001A460D4B99540D4B1B78082B0CD90A4867
:10534C00FFF776FF074B00221A7005E0054B002291
:10535C001A7002E000BF00E000BF00BF0837BD4676
:10536C0080BD00BF64010020680100207101002095
:10537C0080B584B000AF78602B4B5B682B49184626
:10538C00FAF7CCFF03461846FBF78EF90346FB8170
:10539C00254B1B681B0EDAB27B681A70224B1B68FC
:1053AC001A0C7B680133D2B21A701F4B1B681A0A95
:1053BC007B680233D2B21A701B4B1A687B680333BA
:1053CC00D2B21A70B7F90E301B121AB27B680433C2
:1053DC00D2B21A707B680533FA89D2B21A707B6824
:1053EC000633114A127A1A700F4B5B7A5AB20E4B73
:1053FC009B7A5BB25B005BB213435AB20A4BDB7A0B
:10540C005BB29B005BB213435AB2074B1B7B5BB284
:10541C00DB005BB213435AB27B680733D2B21A700B
:10542C0000BF1037BD4680BD440100200060EA4635
:10543C0080B584B000AF78607B681B781A067B68F7
:10544C0001331B781B041A437B6802331B781B0245
:10545C0013437A680332127813431A462D4B1A60A1
:10546C007B6804331B781BB21B021AB27B680533B2
:10547C001B781BB21343FB81B7F90E301846FAF7B1
:10548C00F9FE034624491846FAF7FCFF03461A4670
:10549C00204B5A607B6806331A781E4B1A727B6855
:1054AC0007331B7803F00103002B14BF01230023E7
:1054BC00DAB2184B5A727B6807331B785B08DBB285
:1054CC0003F00103002B14BF01230023DAB2114BAC
:1054DC009A727B6807331B789B08DBB203F00103DD
:1054EC00002B14BF01230023DAB20A4BDA727B685B
:1054FC0007331B78DB08DBB203F00103002B14BF6E
:10550C0001230023DAB2034B1A7300BF1037BD46D8
:10551C0080BD00BF540100200060EA4680B582B017
:10552C0000AF78607B68044A934201D1FFF764FDB9
:10553C0000BF0837BD4680BD5400002080B582B046
:10554C0000AF78607B68084A934209D1074B1B78FF
:10555C001846FFF7A9FE012204490348FEF705FC93
:10556C0000BF0837BD4680BD9C00002030010020E4
:10557C0080B58CB000AF786001233B6200237B6266
:10558C000123BB620023FB620023BB6101233B624E
:10559C0001237B624FF40053BB600023FB604FF48C
:1055AC0000533B6100237B610023FB610123BB6241
:1055BC0007F1080319467868FBF700FB0346002B3C
:1055CC0014BF01230023DBB2002B01D0FFF7FDFA3F
:1055DC0000BF3037BD4680BD80B582B000AF78606B
:1055EC000E4B0F4A00217868FBF7AAFD0346002BEF
:1055FC000CBF01230023DBB2002B07D0084B1B6828
:10560C00B3F5807F02D10548FFF712FF02217868BD
:10561C00FBF7C4FE00BF0837BD4680BD90010020DB
:10562C007401002080B58AB000AFF860B9607A6070
:10563C00FB7007F1100300221A605A609A60DA605E
:10564C001A615A617B683B610023BB610023FB61DB
:10565C00FB783B6200BFF868FBF73EFD0346002B6E
:10566C000CBF01230023DBB2002BF4D107F1100196
:10567C00094BBA68F868FBF715FC0346002B14BFFE
:10568C0001230023DBB2002B01D0FFF79EFA00BFF1
:10569C002837BD4680BD00BF98010020FBF770F88D
:1056AC000B480C490C4A002302E0D458C450043374
:1056BC00C4188C42F9D3094A094C002301E0136049
:1056CC000432A242FBD300F053FFFFF725FA7047D8
:1056DC00000000200C0000206C6C00080C00002066
:1056EC009C010020FEE70000194A20F00043934281
:1056FC001BD900B5B3F1FF4F83B005D30146FAF7C0
:10570C0003FD03B05DF804FB694600F061F9034644
:10571C0003F00303012B0098019910D0022B08D041
:10572C0083B9012200F0DEF8EBE70022002100F043
:10573C00D9B8012200F0D6F800F10040E1E700F002
:10574C0009F8DEE700F006F800F10040D9E700BFE9
:10575C00D80F493F2DE9F84320F00046B6F1485FD9
:10576C00054688464BD2FAF79FFF002800F0A1802F
:10577C0029462846FAF7D2FD04465049FAF7CEFDE1
:10578C004F49FAF7C3FC2146FAF7C8FD4D49FAF721
:10579C00BBFC2146FAF7C2FD4B49FAF7B7FC214690
:1057AC00FAF7BCFD4949FAF7AFFC2146FAF7B6FD0A
:1057BC004749FAF7ABFC2146FAF7B0FD07464FF024
:1057CC007C512046FAF7AAFD0346394620461C4672
:1057DC00FAF7A4FD0346414628461D46FAF79EFDFE
:1057EC0001462846FAF790FC01462046FAF78CFC55
:1057FC0001464FF07E50FAF787FCBDE8F88301466E
:10580C00FAF78CFD04462D49FAF788FD2C49FAF776
:10581C007DFC2146FAF782FD2A49FAF775FC2146F0
:10582C00FAF77CFD2849FAF771FC2146FAF776FD68
:10583C002649FAF769FC2146FAF770FD2449FAF774
:10584C0065FC2146FAF76AFD224B07469E42B6D903
:10585C00214B9E4229D806F17F4631464FF07E50AF
:10586C00FAF752FC814620464FF07C51FAF756FD70
:10587C003146FAF749FC0346394620461C46FAF7EE
:10588C004DFD0346414628461D46FAF747FD0146A5
:10589C002846FAF739FC01462046FAF735FC014652
:1058AC004846FAF731FCBDE8F883DFF830900C4E2F
:1058BC00D9E74FF07E50BDE8F88300BF4ED747AD17
:1058CC00F6740F317CF29334010DD037610BB63A7C
:1058DC00ABAA2A3D9999993E0000483F0000383FF9
:1058EC000000903E2DE9F84320F00043B3F1485FEF
:1058FC0004460E46904603D2FAF7D6FE002858D03E
:10590C0021462046FAF70AFD054620462946FAF7B5
:10591C0005FD294981462846FAF700FD2749FAF783
:10592C00F3FB2946FAF7FAFC2549FAF7EFFB29466F
:10593C00FAF7F4FC2349FAF7E7FB2946FAF7EEFCF1
:10594C002149FAF7E3FB0746B8F1000F22D03046A5
:10595C004FF07C51FAF7E2FC394607464846FAF715
:10596C00DDFC01463846FAF7CFFB2946FAF7D6FCA0
:10597C003146FAF7C9FB154905464846FAF7CEFCFD
:10598C0001462846FAF7C2FB01462046FAF7BCFB53
:10599C00BDE8F88301462846FAF7C0FC0B49FAF734
:1059AC00B3FB4946FAF7BAFC2146FAF7AFFBBDE860
:1059BC00F8832046BDE8F883D3C92E2F342FD73275
:1059CC001BEF3836010D50398988083CABAA2A3EAA
:1059DC002DE9F04FA84A20F0004595420C4689B0BD
:1059EC006FD9A64A064695421FD820F000450028DC
:1059FC00A34925F00F0540F31981FAF785FBA14B5C
:105A0C0006469D426BD0A049FAF77EFB0546304610
:105A1C002946FAF779FB9C49FAF776FB01272560B2
:105A2C006060384609B0BDE8F08F984A954266D957
:105A3C00B5F1FF4F4DD2EF15863FA5EBC755284664
:105A4C00FAF732FEFAF716FC014628460591FAF7EA
:105A5C005BFB4FF08741FAF761FC8046FAF724FEB6
:105A6C00FAF708FC0546404629460695FAF74CFB22
:105A7C004FF08741FAF752FC00210790FAF7E2FD4C
:105A8C00002800F0B18028460021FAF7DBFD002841
:105A9C0014BF0123022302257D493A46019105A832
:105AAC002146009500F006F9002E0746B9DAD4E934
:105ABC00002302F1004203F100432260636047427D
:105ACC00AFE7002220604A600027384609B0BDE8E5
